:08000000803102288731F22F44
:100C900023009E1C482E77089A0008008631BD2646
:100CA000863124009614961C0800532E20009111C2
:100CB0002400961216162000911908005B2E2000C1
:100CC0009111770824009100200091190800642EEA
:100CD0002400961596196A2E141C6C2E1108F70024
:100CE0007708F0000800200091112400161520005C
:100CF0009119080001302000A2000030A300772ED7
:100D00002000911124009616161620009119080053
:100D100001302000A2000030A300852E2000911198
:100D200024001614200091199B2E01302000A200EF
:100D30000030A300922E91110800200091118930FB
:100D40002400910020009119AB2E01302000A20058
:100D50000030A300A22E91110800200091118830CC
:100D60002400910020009119BB2E01302000A20028
:100D70000030A300B22E9111080024001408043999
:100D8000F7007708F80016081F39F7007708F90010
:100D90007808790403190800BD2E23008C018D0109
:100DA0008E0121000C148C140C158C150C168C164D
:100DB0000D168D160D178D130E108E100E118E112F
:100DC0000E128E120E138E1322000E148E100E11A0
:100DD000080023001E151E139E169D171D131D16B9
:100DE00019309B009C0120009112210091160B17D5
:100DF0008B174130FA00EE30F900F90BFD2EFA0B9B
:100E0000FD2E00005230F7000030F80086314826F1
:100E100086315330F7000030F8008631482686319D
:100E20005430F7000030F8008631482608002100D1
:100E300019088739683899001908FC39023899006F
:100E400095138631CD2687318631E92687312400F6
:100E50001508F039083895009516093092000930C8
:100E600092004130FC00EE30FB00FB0B352FFC0BF9
:100E7000352F000086318E2687318631AD268731A9
:100E80002400161B452F22008E102C30F700003056
:100E9000F80086315F2687310630F7000030F80011
:100EA00086315F2687318631732687311430FC0006
:100EB0007930FB00FB0B5A2FFC0B5A2F0032863186
:100EC0004E26873186319D268731863168268731C7
:100ED0007008FB007B08F500863156268731863185
:100EE000682687317008FB007B08F600863156269D
:100EF00087318631682687317008FB007B08F10056
:100F00008631562687318631682687317008FB0086
:100F10007B08F30086315626873186316826873173
:100F20007008FB007B08F400863156268731863135
:100F3000682687317008FB007B08F2008631802626
:100F400087318631732687317508FB00FC017B08E9
:100F5000F7007C08F8008631482687317608FB00C8
:100F6000FC017B08F7007C08F800863148268731B1
:100F70007308FB00FC017B08F7007C08F800863151
:100F8000482687317408FB00FC017B08F7007C08C9
:100F9000F800863148268731F930FB000000FB0B52
:100FA000CE2F003200000330FD008A30FC005630A6
:100FB000FB00FB0BD92FFC0BD92FFD0BD92F0032D7
:100FC00022000E140330FD008A30FC005630FB0076
:100FD000FB0BE82FFC0BE82FFD0BE82F0032220063
:100FE0000E10D32FF001F101F201F301F401F5012C
:100FF000F601A001A101A201A30120008731172F52
:020000040001F9
:04000E00F4FFFFF705
:00000001FF
