:08000000803102288731F32F43
:1002900023009E1C482970089A0008008131BE2165
:1002A000813124009614961C0800532920009111D6
:1002B0002400961216162000911908005B292000D0
:1002C0009111700824009100200091190800642900
:1002D0002400961596196A29141C6C291108F0003F
:1002E0007008F10071080800200091112400161513
:1002F00020009119080001302000DB000030DC00F4
:1003000078292000911124009616161620009119C4
:10031000080001302000DB000030DC0086292000CE
:10032000911124001614200091199C2901302000FD
:10033000DB000030DC0093299111080020009111AE
:1003400089302400910020009119AC29013020004F
:10035000DB000030DC00A32991110800200091117E
:1003600088302400910020009119BC290130200020
:10037000DB000030DC00B3299111080024001408D0
:100380000439F0007008F10016081F39F0007008F9
:10039000F2007108720403190800BE2923001E151B
:1003A0001E139E169D171D131D1619309B009C01D0
:1003B00020009112210091160B178B1708002300C3
:1003C0008C018D018E0121000C148C140C158C15E0
:1003D0000C168C160D168D160D178D130E108E1013
:1003E0000E118E110E128E120E138E1322000E1489
:1003F0008E100E110800FD01F91F052AF809F909F0
:10040000F80A0319F90AFD01FD0A7808F0007908D5
:10041000F100F2018E30FB007B08F3007D08FC0048
:100420007C08F400833161237008F8007108F9003A
:100430007208FA000800F700F501F6017508770761
:10044000F200720886008701010803190800750888
:100450007707F2007208860087010108F300F401B3
:100460007308F0007408F1008131482182310130B5
:10047000F5070030F63D1E2A2000A9002908FD00DE
:100480007D08A800A51F542A2D30FD0029088600EC
:1004900087017D0881000130FD007D08A907A409BE
:1004A000A509A40A0319A50A2508F9002408F800DB
:1004B0002708FB002608FA0029088231FF220800DD
:1004C000700871040319872AF501F50AF11B722AD5
:1004D0000130F035F10D890B692A0130F400740800
:1004E000F507662A71087302031D782A70087202E4
:1004F000031C7E2A7008F2027108F33B0130F136CA
:10050000F00C890B7F2A0130F502031D722A730853
:10051000F1007208F0000800F501F601700871049E
:100520000319BB2AF701F70AF11BA02A0130F035A5
:10053000F10D890B972A0130F4007408F707942A0B
:100540000130F535F60D890BA12A71087302031DE0
:10055000AB2A70087202031CB22A7008F2027108FA
:10056000F33B75140130F136F00C890BB32A0130DE
:10057000F702031DA02A7608F1007508F0000800B4
:100580002000B7002A08AC00AD013708AE00AF016B
:100590002E08AF00AE012C082E07F8002D082F3DC5
:1005A000F9008131FB21823178082000B1007908FF
:1005B000B2007A08B3000130F800C830F9003A30D0
:1005C000FA003108FB003208FC003308FD008531D9
:1005D0004925823178082000B4007908B5007A08EE
:1005E000B6003408F0003508F1003608F200843116
:1005F0002A2471082000AB007008AA00080020001F
:10060000A3007908A1007808A0007B08F1007A080F
:10061000F0002108F3002008F20082318C228231A0
:1006200071082000A1007008A0000130FC007C08C7
:10063000A30720082104031D052B2308860087013A
:1006400081010130A3027B08F1007A08F0007908EB
:10065000F3007808F2008231602282317008FC00D9
:100660007C082000A2007B08F1007A08F0007908DD
:10067000F3007808F20082318C2282317108F9008F
:100680007008F8000A3020002202031C4B2B0730B0
:10069000FC007C08A2073030FC007C08A20722087E
:1006A000FC002308860087017C0881000130A3023A
:1006B00078087904031D232B0130FC007C08A30774
:1006C000080073080319692B720871047004031D74
:1006D0007A2B0030F0000030F1000030F20008000A
:1006E0000130F5007508F3070130F236F10CF00C1B
:1006F000890B752BFE3072050319932B702B01307B
:10070000F5007508F3070130F007003003180130D9
:10071000F107003003180130F2070130F236F10C16
:10072000F00C890B8E2BFF3072050319A02B7F2B49
:100730000130F3020130F035F10DF20D890B9B2BE6
:10074000F11BA62B023073020318982B7318AE2BE3
:10075000FF30F0057F30F105FF30F2050310F30C98
:100760007308F500F601F7011030F535F60DF70DB9
:10077000890BB52B7508F0047608F1047708F204AC
:10078000740803190800F21708002000C100370898
:10079000B900BA014108BB00BC013B08BC00BB0169
:1007A00039083B07F8003A083C3DF9008131FB214C
:1007B000833178082000BE007908BF007A08C000A5
:1007C0000030AA003430AB00C230AC000130F80079
:1007D0002F30F9003B30FA003E08FB003F08FC00D8
:1007E0004008FD0085314925833178082000AD009F
:1007F0007908AE007A08AF008531FC2583312000EE
:100800002A08C2002B08C3002C08C4000030F800DE
:10081000C830F9004230FA004208FB004308FC00EF
:100820004408FD0085314925833178082000C20045
:100830007908C3007A08C4004208F0004308F100B8
:100840004408F20084312A2471082000B80070089E
:10085000B70008007008F4007108F5007208F6008F
:100860000310750D760DF7007708FD007D08031D58
:10087000422C0030F3000030F2000030F100003074
:10088000F00008007008F4007108F5007208F60026
:100890001730F636F50CF40C890B492C7408F70068
:1008A0007708F800F117FF30F005FF30F105003050
:1008B000F2057008F9007108FA007208FB00FC01EB
:1008C0008E30FD02FD1F802C7D08803A8F3E03187C
:1008D000722C0030F3000030F2000030F1000030E4
:1008E000F00008000130FC36FB0CFA0CF90C890B07
:1008F000732C0130F4007408FD070319992C722C35
:1009000018307D02031C962C0030F3000030F200FA
:100910000030F1000030F00008000130F935FA0D28
:10092000FB0DFC0D890B8E2C0130FD027D08031D93
:100930008D2C78080319A72CF909FA09FB09FC0981
:10094000F90A0319FA0A0319FB0A0319FC0A7C08BD
:10095000F3007B08F2007A08F1007908F000080043
:1009600081318F2184318131AE2184312400161BE5
:10097000BB2C22008E102C30F0000030F1008131B1
:100980005F2184310630F0000030F10081315F21B9
:10099000843181317421843114302000A1007930F8
:1009A000A000A00BD12CA10BD12C003281314E2103
:1009B000843181319E21843181316821843120004C
:1009C000A0002008A700813156218431813168219F
:1009D00084312000A0002008A800813156218431F4
:1009E0008131682184312000A0002008A50028085A
:1009F000A000A1012708A200A3012208A300A201D0
:100A000020082207AB002108233DAC00813156218C
:100A100084318131682184312000A0002008A900A0
:100A20008131562184318131682184312000A00038
:100A30002008AA0081315621843181316821843116
:100A40002000A0002008A6002A08A000A101290873
:100A5000A200A3012208A300A20120082207AD00E2
:100A60002108233DAE0081318121843181317421FF
:100A700084312B30860000308700733084000030D2
:100A8000850007302000A00016001A00A00B442D9E
:100A9000080078082000A0007908A1007A08A200C8
:100AA0000310210D220DA3002308A4002408031D18
:100AB000602D0030F8000030F9000030FA00080026
:100AC0007B08A0007C08A1007D08A2000310210D76
:100AD000220DA3002308A9002908031D762D00304C
:100AE000F8000030F9000030FA00080029087B3EC9
:100AF000A0002008A4077808A0007908A1007A08BF
:100B0000A2001030A236A10CA00C890B822D200867
:100B1000A3002308A9007B08A0007C08A1007D0891
:100B2000A2001030A236A10CA00C890B922D200837
:100B3000A3002308A9068030A0002008A905F91702
:100B4000FC17FF30FB05FF30FC050030FD050030D1
:100B5000A5000030A6000030A7000730A000200844
:100B6000A800781CB92D7B08A5077C08A63D7D0848
:100B7000A73D0130FA36F90CF80C890BBA2D01307B
:100B8000FB35FC0DFD0D890BC02D0130A802031DA6
:100B9000B12D0930A0002008A800781CD52D7B08B5
:100BA000A5077C08A63D7D08A73D0130FA36F90C63
:100BB000F80C890BD62D0130A736A60CA50C890B95
:100BC000DC2D0130A802031DCD2D2508F0002608DC
:100BD000F1002708F2002408A0002008F3002908EB
:100BE000A1002108F400833161237008F800710826
:100BF000F9007208FA00080020002A08B0002B084B
:100C0000B1002C08B2000310310D320DB3003308CF
:100C1000B6002D08B0002E08B1002F08B200031056
:100C2000310D320DB3003308B50036080319242EF8
:100C30003508360203182B2E3603FF3A3507B0006D
:100C400019303002031C2B2E2D08AA002E08AB00F1
:100C50002F08AC00080035080319080036083502D3
:100C600003183A2E3503FF3A3607B0001930300228
:100C7000031808000630B0003008B400AC1BB417ED
:100C8000AF1B3417AB17FF30AA05FF30AB050030A0
:100C9000AC05AE17FF30AD05FF30AE050030AF0537
:100CA000350836020318762E0130AD35AE0DAF0D86
:100CB000890B552E0130B502350836060319712E01
:100CC0000130B402340807390319712E542E013053
:100CD000AC36AB0CAA0C890B682E0130B000300882
:100CE000B6073608350603199B2E672E36083502DF
:100CF00003189B2E0130AA35AB0DAC0D890B7B2E52
:100D00000130B602350836060319972E0130B402B9
:100D1000340807390319972E7A2E0130AF36AE0CFE
:100D2000AD0C890B8E2E0130B0003008B5073608A7
:100D30003506031D8D2EB41FAD2EFF30AA06FF30E1
:100D4000AB06FF30AC060130AA07003003180130B3
:100D5000AB07003003180130AC07341FBF2EFF3043
:100D6000AD06FF30AE06FF30AF060130AD070030F4
:100D700003180130AE07003003180130AF07B4018B
:100D80002A08AD072B08AE3D2C08AF3DAF1FDA2E69
:100D9000FF30AD06FF30AE06FF30AF060130AD07C5
:100DA000003003180130AE07003003180130AF07E0
:100DB000B401B40A2D08F0002E08F1002F08F2004B
:100DC0003608B0003008F3003408B1003108F400F0
:100DD0008331612370082000AA007108AB007208FB
:100DE000AC000800210019088739683899001908F3
:100DF000FC390238990095138131DF218631813128
:100E0000CE21863124001508F03908389500951652
:100E1000093092000930920041302000C600EE30C7
:100E2000C500C50B112FC60B112F00002000610853
:100E3000C500C6014508F0004608F100813148218F
:100E4000863120006208C500C6014508F00046084A
:100E5000F10081314821863120005F08C500C601BC
:100E60004508F0004608F100813148218631200014
:100E70006008C500C6014508F0004608F100813150
:100E800048218631F9302000C5000000C50B452FF0
:100E9000003200008431B024863173308600003087
:100EA0008700523084000030850007302000C500E4
:100EB00016001A00C50B582F6208C5004508AA0085
:100EC00061088231C022863120002B08D1002A0817
:100ED000D0000330C7008A30C6005630C500C50BAD
:100EE0006F2FC60B6F2FC70B6F2F003222000E140F
:100EF00003302000C7008A30C6005630C500C50B3D
:100F00007F2FC60B7F2FC70B7F2F003222000E10C2
:100F100020005108A5005008A4000A30A6000030A7
:100F2000A700483082313C228631483082311B2272
:100F300086310A30F0000030F100813148218631DD
:100F40000D30F0000030F100813148218631200061
:100F50006008C5004508B7005F088331C5238631A6
:100F600020003808D1003708D0005308A5005208E7
:100F7000A4000A30A6000030A700483082313C228D
:100F80008631483082311B2286310A30F000003031
:100F9000F1008131482186310D30F0000030F10040
:100FA00081314821863120005508A5005408A4004D
:100FB0000A30A6000030A700483082313C2286313A
:100FC000483082311B2286310A30F0000030F100B7
:100FD0008131482186310D30F0000030F10081313F
:100FE000482186310C2FD901DA01DB01DC01DD015A
:100FF000DE01DF01E001E101E20120008631F22E95
:020000040001F9
:04000E00E4FFFFF715
:00000001FF
