:08000000803102288731F22F44
:1003040023009E1C822970089A0008008131F8217C
:10031400813124009614961C08008D292000911127
:100324002400961216162000911908009529200021
:1003340091117008240091002000911908009E2951
:10034400240096159619A429141CA6291108F00056
:1003540070082000D6000800200091112400161512
:1003640020009119080001302000D4000030D5008D
:10037400B229200091112400961616162000911916
:10038400080001302000D4000030D500C02920002E
:1003940091112400161420009119D629013020004F
:1003A400D4000030D500CD2991110800200091110E
:1003B40089302400910020009119E62901302000A1
:1003C400D4000030D500DD299111080020009111DE
:1003D40088302400910020009119F6290130200072
:1003E400D4000030D500ED29911108002400140830
:1003F4000439F0007008F10016081F39F000700885
:10040400F2007108720403190800F82923008C0112
:100414008D018E0121000C148C140C158C150C16F6
:100424008C160D168D160D178D130E108E100E11C1
:100434008E110E128E120E138E1322000E148E10B5
:100444000E110800FD01F91F2E2AF809F909F80A0E
:100454000319F90AFD01FD0A7808F0007908F10092
:10046400F2018E30FB007B08F3007D08FC007C0861
:10047400F4008331B8237008F8007108F900720899
:10048400FA000800F700F501F60175087707F20095
:1004940072088600870101080319080075087707A8
:1004A400F2007208860087010108F300F401730862
:1004B400F0007408F1008131822182310130F507A6
:1004C4000030F63D472A2000A9002908FD007D08D8
:1004D400A800A51F7D2A2D30FD002908860087016C
:1004E4007D0881000130FD007D08A907A409A50944
:1004F400A40A0319A50A2508F9002408F800270806
:10050400FB002608FA0029088331562308007008E6
:1005140071040319B02AF501F50AF11B9B2A013075
:10052400F035F10D890B922A0130F4007408F507B7
:100534008F2A71087302031DA12A70087202031C1A
:10054400A72A7008F2027108F33B0130F136F00C6F
:10055400890BA82A0130F502031D9B2A7308F100B8
:100564007208F000080023001E151E139E169D1726
:100574001D131D1619309B009C01200091122100AF
:1005840091160B178B174130F300EE30F200F20B8B
:10059400C92AF30BC92A00005230F0000030F100E0
:1005A4008131822182315330F0000030F1008131F9
:1005B400822182315430F0000030F10081318221F7
:1005C4000800F501F601700871040319122BF701F4
:1005D400F70AF11BF72A0130F035F10D890BEE2AE9
:1005E4000130F4007408F707EB2A0130F535F60DF5
:1005F400890BF82A71087302031D022B700872021A
:10060400031C092B7008F2027108F33B75140130C6
:10061400F136F00C890B0A2B0130F702031DF72A7F
:100624007608F1007508F00008002000B7002A08D9
:10063400AC00AD013708AE00AF012E08AF00AE012B
:100644002C082E07F8002D082F3DF90082312422B2
:10065400833178082000B1007908B2007A08B30029
:100664000130F800C830F9003A30FA003108FB00D4
:100674003208FC003308FD008531072583317808F2
:100684002000B4007908B5007A08B6003408F000F8
:100694003508F1003608F200843181247108200005
:1006A400AB007008AA0008002000A3007908A1008C
:1006B4007808A0007B08F1007A08F0002108F30014
:1006C4002008F2008231E322833171082000A10066
:1006D4007008A0000130FC007C08A3072008210456
:1006E400031D5C2B23088600870181010130A302CE
:1006F4007B08F1007A08F0007908F3007808F2002A
:100704008231892283317008FC007C082000A20019
:100714007B08F1007A08F0007908F3007808F20009
:100724008231E32283317108F9007008F8000A303D
:1007340020002202031CA22B0730FC007C08A20725
:100744003030FC007C08A2072208FC002308860045
:1007540087017C0881000130A30278087904031D15
:100764007A2B0130FC007C08A307080073080319E6
:10077400C02B720871047004031DD12B0030F000EB
:100784000030F1000030F20008000130F500750877
:10079400F3070130F236F10CF00C890BCC2BFE3050
:1007A40072050319EA2BC72B0130F5007508F3070E
:1007B4000130F007003003180130F107003003184E
:1007C4000130F2070130F236F10CF00C890BE52B05
:1007D400FF3072050319F72BD62B0130F3020130D9
:1007E400F035F10DF20D890BF22BF11BFD2B0230CC
:1007F40073020318EF2B7318052CFF30F0057F30BC
:10080400F105FF30F2050310F30C7308F500F6014F
:10081400F7011030F535F60DF70D890B0C2C750822
:10082400F0047608F1047708F20474080319080048
:10083400F21708002000C1003708B900BA014108C6
:10084400BB00BC013B08BC00BB0139083B07F800F6
:100854003A083C3DF9008231242284317808200092
:10086400BE007908BF007A08C0000030AA00343006
:10087400AB00C230AC000130F8002F30F9003B303F
:10088400FA003E08FB003F08FC004008FD008531EB
:100894000725843178082000AD007908AE007A0875
:1008A400AF008531BA25843120002A08C2002B0804
:1008B400C3002C08C4000030F800C830F9004230EE
:1008C400FA004208FB004308FC004408FD0085319F
:1008D4000725843178082000C2007908C3007A080B
:1008E400C4004208F0004308F1004408F2008431D7
:1008F400812471082000B8007008B700080070084F
:10090400F4007108F5007208F6000310750D760DF9
:10091400F7007708FD007D08031D992C0030F300D3
:100924000030F2000030F1000030F00008007008E0
:10093400F4007108F5007208F6001730F636F50C6D
:10094400F40C890BA02C7408F7007708F800F11751
:10095400FF30F005FF30F1050030F2057008F900B2
:100964007108FA007208FB00FC018E30FD02FD1FC5
:10097400D72C7D08803A8F3E0318C92C0030F30031
:100984000030F2000030F1000030F00008000130C7
:10099400FC36FB0CFA0CF90C890BCA2C0130F40060
:1009A4007408FD070319F02CC92C18307D02031CB0
:1009B400ED2C0030F3000030F2000030F100003084
:1009C400F00008000130F935FA0DFB0DFC0D890B20
:1009D400E52C0130FD027D08031DE42C7808031981
:1009E400FE2CF909FA09FB09FC09F90A0319FA0AA8
:1009F4000319FB0A0319FC0A7C08F3007B08F200C4
:100A04007A08F1007908F000080078082000A000B6
:100A14007908A1007A08A2000310210D220DA30079
:100A24002308A4002408031D1E2D0030F800003004
:100A3400F9000030FA0008007B08A0007C08A1003F
:100A44007D08A2000310210D220DA3002308A90094
:100A54002908031D342D0030F8000030F90000305F
:100A6400FA00080029087B3EA0002008A4077808A3
:100A7400A0007908A1007A08A2001030A236A10CC7
:100A8400A00C890B402D2008A3002308A9007B0893
:100A9400A0007C08A1007D08A2001030A236A10CA1
:100AA400A00C890B502D2008A3002308A906803030
:100AB400A0002008A905F917FC17FF30FB05FF303B
:100AC400FC050030FD050030A5000030A600003014
:100AD400A7000730A0002008A800781C772D7B0809
:100AE400A5077C08A63D7D08A73D0130FA36F90C20
:100AF400F80C890B782D0130FB35FC0DFD0D890BAD
:100B04007E2D0130A802031D6F2D0930A00020089E
:100B1400A800781C932D7B08A5077C08A63D7D08BA
:100B2400A73D0130FA36F90CF80C890B942D0130ED
:100B3400A736A60CA50C890B9A2D0130A802031D1B
:100B44008B2D2508F0002608F1002708F200240860
:100B5400A0002008F3002908A1002108F400833133
:100B6400B8237008F8007108F9007208FA00080048
:100B740020002A08B0002B08B1002C08B200031092
:100B8400310D320DB3003308B6002D08B0002E0825
:100B9400B1002F08B2000310310D320DB300330839
:100BA400B50036080319E22D350836020318E92D7D
:100BB4003603FF3A3507B00019303002031CE92D23
:100BC4002D08AA002E08AB002F08AC000800350839
:100BD40003190800360835020318F82D3503FF3AC7
:100BE4003607B00019303002031808000630B00090
:100BF4003008B400AC1BB417AF1B3417AB17FF306D
:100C0400AA05FF30AB050030AC05AE17FF30AD05CB
:100C1400FF30AE050030AF05350836020318342E18
:100C24000130AD35AE0DAF0D890B132E0130B50279
:100C34003508360603192F2E0130B402340807395B
:100C440003192F2E122E0130AC36AB0CAA0C890BD3
:100C5400262E0130B0003008B607360835060319D1
:100C6400592E252E360835020318592E0130AA357F
:100C7400AB0DAC0D890B392E0130B60235083606A2
:100C84000319552E0130B402340807390319552EBF
:100C9400382E0130AF36AE0CAD0C890B4C2E013022
:100CA400B0003008B50736083506031D4B2EB41FB7
:100CB4006B2EFF30AA06FF30AB06FF30AC060130C6
:100CC400AA07003003180130AB07003003180130C5
:100CD400AC07341F7D2EFF30AD06FF30AE06FF306B
:100CE400AF060130AD07003003180130AE07003005
:100CF40003180130AF07B4012A08AD072B08AE3D35
:100D04002C08AF3DAF1F982EFF30AD06FF30AE0666
:100D1400FF30AF060130AD07003003180130AE07D5
:100D2400003003180130AF07B401B40A2D08F000F5
:100D34002E08F1002F08F2003608B0003008F30046
:100D44003408B1003108F4008331B823700820005E
:100D5400AA007108AB007208AC0008002100190851
:100D64008739683899001908FC39023899009513B5
:100D74008231082286318231B52286312400150859
:100D8400F039083895009516093092000930920020
:100D940041302000C600EE30C500C50BCF2EC60B77
:100DA400CF2E00008131C92186318131E82186317D
:100DB4002400161BDF2E22008E102C30F000003091
:100DC400F1008131992186310630F0000030F100C4
:100DD4008131992186318131AE2186311430200050
:100DE400C6007930C500C50BF52EC60BF52E0032B2
:100DF4008131882186318131D82186318131A22106
:100E0400863120005608C5004508DB008131902159
:100E140086318131A221863120005608C50045085B
:100E2400DC008131902186318131A221863120007C
:100E34005608C5004508D70081319021863181319B
:100E4400A221863120005608C5004508D900813109
:100E5400902186318131A221863120005608C500B7
:100E64004508DA008131902186318131A221863111
:100E740020005608C5004508D8008131BB218631C1
:100E84008131AE21863120005B08C500C6014508CA
:100E9400F0004608F10081318221863120005C088F
:100EA400C500C6014508F0004608F10081318221E1
:100EB400863120005908C500C6014508F0004608DF
:100EC400F10081318221863120005A08C500C60113
:100ED4004508F0004608F100813182218631F9305D
:100EE4002000C5000000C50B742F00320000200054
:100EF4005C08C5004508AA005B08833117238631C6
:100F040020002B08D1002A08D0000330C7008A3003
:100F1400C6005630C500C50B8D2FC60B8D2FC70BD1
:100F24008D2F003222000E1403302000C7008A30B7
:100F3400C6005630C500C50B9D2FC60B9D2FC70B91
:100F44009D2F003222000E1020005108A5005008E9
:100F5400A4000A30A6000030A70048308231652280
:100F6400863148308231442286310A30F000003024
:100F7400F1008131822186310D30F0000030F10022
:100F840081318221863120005A08C5004508B70006
:100F9400590884311C24863120003808D1003708D0
:100FA400D0005108A5005008A4000A30A600003063
:100FB400A70048308231652286314830823144228C
:100FC40086310A30F0000030F1008131822186310F
:100FD4000D30F0000030F100813182218631792F0B
:100FE400D201D301D401D501D601D701D801D90149
:0C0FF400DA01DB01DC0120008631B02EA8
:020000040001F9
:04000E00E4FFFFF715
:00000001FF
