:08000000803102288731F92F3D
:10032200080021000D168D160D178D1308002300ED
:100332009E1C982970089A00080082310E22813191
:1003420024009614961C0800A32920009111240071
:1003520096121616200091190800AB29200091115F
:10036200700824009100200091190800B42924008B
:1003720096159619BA29141CBC291108F0007008A8
:10038200F1007108080020009111240016152000C8
:100392009119080001302000D2000030D300C82992
:1003A20020009111240096161616200091190800BB
:1003B20001302000D2000030D300D6292000911154
:1003C2002400161420009119EC2901302000D200DB
:1003D2000030D300E32991110800200091118830E8
:1003E2002400910020009119FC2901302000D20044
:1003F2000030D300F32991110800200091118930B7
:1004020024009100200091190C2A01302000D20012
:100412000030D300032A9111080024001408043983
:10042200F0007008F10016081F39F0007008F200A1
:1004320071087204031908000E2A23001E151E13E8
:100442009E169D171D131D1619309B009C0120003E
:100452009112210091160B178B1708007808F000F3
:100462007908F100F2018E30FB007B08F300F40101
:100472008331F0237008F8007108F9007208FA005D
:10048200080023008C018D018E0121000C148C14B4
:100492000C158C150C168C160E108E100E118E115A
:1004A2000E128E120E138E1322000E148E100E11C7
:1004B2000800F601F7017208760784007308773D99
:1004C2008500120003190800720876078400730879
:1004D200773D85000008F400F5017408F000750806
:1004E200F1008131982182310130F6070030F73D69
:1004F2005C2AF5008131DF2182318131EE218231A6
:100502002400161B862A22008E107508F300F401BF
:100512007308F0007408F1008131AF218231720852
:10052200F300F4017308F0007408F1008131AF2187
:1005320082318131C42108002000BB003B08B90090
:100542003908BA00B61FB52A2D30B9003B0886001B
:100552008701390881000130B9003908BB07B509A4
:10056200B609B50A0319B60A3608F9003508F800C3
:100572003808FB003708FA003B0883318E23080055
:10058200F200F401F5017508803AF1008030710241
:1005920008300319740203180800700886008701E6
:1005A20001087206F1007108F300700886008701E5
:1005B2000310810D0310F20DF31FE62A3130F10012
:1005C200700886008701710881060130F407003047
:1005D200F53DC42A700871040319122BF501F50ABE
:1005E200F11BFD2A0130F035F10D890BF42A01309F
:1005F200F4007408F507F12A71087302031D032B36
:1006020070087202031C092B7008F2027108F33B96
:100612000130F136F00C890B0A2B0130F502031D73
:10062200FD2A7308F1007208F0000800F501F601D6
:10063200700871040319462BF701F70AF11B2B2BE3
:100642000130F035F10D890B222B0130F4007408D2
:10065200F7071F2B0130F535F60D890B2C2B71088E
:100662007302031D362B70087202031C3D2B7008A7
:10067200F2027108F33B75140130F136F00C890B6C
:100682003E2B0130F702031D2B2B7608F100750873
:10069200F0000800FF302000A0007F30A1004730AA
:1006A200A2003108F9003008F80082312F2283318C
:1006B20078082000A3007908A4007A08A5008431F4
:1006C200DA24833120002008B2002108B300220876
:1006D200B4000030F800C830F9004230FA003208A5
:1006E200FB003308FC003408FD008531832583318B
:1006F20078082000B2007908B3007A08B400320802
:10070200F0003308F1003408F200843154247108F7
:100712002000B1007008B00008002000A300790892
:10072200A1007808A0007B08F1007A08F0002108F7
:10073200F3002008F200833117238331710820006F
:10074200A1007008A0000130FC007C08A30720086B
:100752002104031D942B23088600870181010130A7
:10076200A3027B08F1007A08F0007908F300780808
:10077200F2008231EB2283317008FC007C082000F9
:10078200A2007B08F1007A08F0007908F3007808EB
:10079200F2008331172383317108F9007008F800E1
:1007A2000A3020002202031CDA2B0730FC007C08EE
:1007B200A2073030FC007C08A2072208FC002308B4
:1007C200860087017C0881000130A3027808790441
:1007D200031DB22B0130FC007C08A307080073083C
:1007E2000319F82B720871047004031D092C0030E0
:1007F200F0000030F1000030F20008000130F50096
:100802007508F3070130F236F10CF00C890B042C59
:10081200FE3072050319222CFF2B0130F5007508FA
:10082200F3070130F007003003180130F107003000
:1008320003180130F2070130F236F10CF00C890B8B
:100842001D2CFF30720503192F2C0E2C0130F302E0
:100852000130F035F10DF20D890B2A2CF11B352CEC
:10086200023073020318272C73183D2CFF30F00559
:100872007F30F105FF30F2050310F30C7308F50029
:10088200F601F7011030F535F60DF70D890B442C02
:100892007508F0047608F1047708F2047408031965
:1008A2000800F21708007008F4007108F5007208D9
:1008B200F6000310750D760DF7007708FD007D0830
:1008C200031D6C2C0030F3000030F2000030F10008
:1008D2000030F00008007008F4007108F50072089A
:1008E200F6001730F636F50CF40C890B732C7408ED
:1008F200F7007708F800F117FF30F005FF30F10537
:100902000030F2057008F9007108FA007208FB0065
:10091200FC018E30FD02FD1FAA2C7D08803A8F3E1D
:1009220003189C2C0030F3000030F2000030F1007C
:100932000030F00008000130FC36FB0CFA0CF90C18
:10094200890B9D2C0130F4007408FD070319C32C98
:100952009C2C18307D02031CC02C0030F3000030A8
:10096200F2000030F1000030F00008000130F935EB
:10097200FA0DFB0DFC0D890BB82C0130FD027D0830
:10098200031DB72C78080319D12CF909FA09FB09C0
:10099200FC09F90A0319FA0A0319FB0A0319FC0AEA
:1009A2007C08F3007B08F2007A08F1007908F00075
:1009B200080020002308A6002408A7002508A80094
:1009C2000310270D280DA9002908AE002E08031DCB
:1009D200F12C0030A0000030A1000030A20008007D
:1009E2002008A6002108A7002208A8000310270D4E
:1009F200280DA9002908AF002F08031D072D00307C
:100A0200A0000030A1000030A20008000030AB00BE
:100A12000030AC000030AD0089302F07A600260858
:100A2200AE022308A6002408A7002508A80010305B
:100A3200A836A70CA60C890B192D2608A90029088F
:100A4200AF002008A6002108A7002208A800103045
:100A5200A836A70CA60C890B292D2608A90029085F
:100A6200AF068030A6002608AF05A417FF30A30505
:100A7200FF30A4050030A505A117FF30A005FF3007
:100A8200A1050030A2051830A6002608AA000130F0
:100A9200AB35AC0DAD0D890B492D22082502031D86
:100AA200582D21082402031D582D20082302031C5F
:100AB200612D2008A3022108A43B2208A53B2B1488
:100AC2000130A335A40DA50D890B622D0130AA02B8
:100AD200031D482D2B08F0002C08F1002D08F20010
:100AE2002E08A6002608F3002F08A7002708F40006
:100AF2008331F02370082000A0007108A100720861
:100B0200A200080078082000A0007908A1007A0855
:100B1200A2000310210D220DA3002308A400240823
:100B2200031D9A2D0030F8000030F9000030FA0061
:100B320008007B08A0007C08A1007D08A200031029
:100B4200210D220DA3002308A9002908031DB02DA1
:100B52000030F8000030F9000030FA0008002908DF
:100B62007B3EA0002008A4077808A0007908A10015
:100B72007A08A2001030A236A10CA00C890BBC2D61
:100B82002008A3002308A9007B08A0007C08A1007C
:100B92007D08A2001030A236A10CA00C890BCC2D2E
:100BA2002008A3002308A9068030A0002008A90578
:100BB200F917FC17FF30FB05FF30FC050030FD057F
:100BC2000030A5000030A6000030A7000730A000CA
:100BD2002008A800781CF32D7B08A5077C08A63DF9
:100BE2007D08A73D0130FA36F90CF80C890BF42D7B
:100BF2000130FB35FC0DFD0D890BFA2D0130A802E9
:100C0200031DEB2D0930A0002008A800781C0F2E30
:100C12007B08A5077C08A63D7D08A73D0130FA3672
:100C2200F90CF80C890B102E0130A736A60CA50C76
:100C3200890B162E0130A802031D072E2508F0008D
:100C42002608F1002708F2002408A0002008F3007B
:100C52002908A1002108F4008331F0237008F8006C
:100C62007108F9007208FA000800FF302000A000A5
:100C72002008A70001308400883085000008A00009
:100C82002008F2000030840088308500000882319C
:100C92007A22863114302000A1007930A000A00B06
:100CA200502EA10B502E003281319E21863181318E
:100CB200FE2186318131B82186312000A000200832
:100CC200A5008131A621863127302000A00020080E
:100CD200F00025088231C12286318131B821863166
:100CE2002000A0002008A6008131A62186312730ED
:100CF2002000A0002008F00026088231C12286319F
:100D02008131B82186312000A0002008AC00813159
:100D1200A621863120002608A000A1012508A200F4
:100D2200A3012208A300A20120082207A80021088B
:100D3200233DA9002C082706031DA12EAF01AF0AEF
:100D4200FF30A0002008A7008131B82186312000A1
:100D5200A0002008A5008131A6218631273020007D
:100D6200A0002008F00025088231C122863181319D
:100D7200B82186312000A0002008A6002730A0005C
:100D82002008F00026088231C12286318131A62155
:100D920086318131B82186312000A0002008AD00C3
:100DA2002608A000A1012508A200A3012208A30091
:100DB200A20120082207AA002108233DAB008131AD
:100DC200D12186318131C421863120002D082706A8
:100DD2000319AF1428308600003087007630840073
:100DE200003085000830A00016001A00A00BF52E76
:100DF2000800210019088739683899001908FC3958
:100E020002389900951382314222863182311E22A4
:100E1200863181319221863124001508F039083853
:100E22009500951609309200093092004130200059
:100E3200BD00EE30BC00BC0B1C2FBD0B1C2F0000F4
:100E4200863136268631763086000030870048307B
:100E520084000030850008302000BC0016001A0013
:100E6200BC0B2F2F0230F2008830F30082315A225D
:100E7200863120004908F1004808F00081319121B3
:100E8200863171082000B6007008B5000A30B7003C
:100E92000030B8003F3082319D2286313F30F2006F
:100EA2000030F30082315A2286310A30F0000030DD
:100EB200F1008131982186310D30F0000030F100CF
:100EC2008131982186311030F2008830F30082316E
:100ED2005A22863120004B08B1004A08B000833103
:100EE2004B23863120003108B6003008B5000A30A5
:100EF200B7000030B8003F3082319D2286313F304A
:100F0200F2000030F30082315A2286310A30F000BA
:100F12000030F1008131982186310D30F00000302F
:100F2200F1008131982186311B30F2008830F300C4
:100F320082315A22863100302000B5000030B600DE
:100F42001030B7000030B8003F3082319D22863128
:100F52003F30F2000030F30082315A2286310A30EB
:100F6200F0000030F1008131982186310D30F0001F
:100F72000030F1008131982186312430F20088302E
:100F8200F30082315A22863120004C08BC00BD0198
:100F92003C08B5003D08B6001030B7000030B8007C
:100FA2003F3082319D2286313F30F2000030F30023
:100FB20082315A2286310A30F0000030F10081314C
:100FC200982186310D30F0000030F10081319821F6
:100FD20086311A302000BE005E30BD008630BC0073
:100FE200BC0BF12FBD0BF12FBE0BF12F0000172F01
:100FF200D001D101D201D30120008631FA2E2C3446
:101002000634543465346D3470346534723461346A
:1010120074347534723465343A34203400344834CC
:1010220075346D34693464346934743479343A34DF
:10103200203400345334743461347434753473346A
:101042003A34203400344334523443343A34203472
:02105200003468
:020000040001F9
:04000E00E4FFFFF715
:00000001FF
