:08000000803102288731F32F43
:1002840023009E1C422970089A0008008131B8217D
:10029400813124009614961C08004D2920009111E8
:1002A40024009612161620009119080055292000E2
:1002B40091117008240091002000911908005E2912
:1002C4002400961596196429141C66291108F00057
:1002D4007008F1007108080020009111240016151F
:1002E40020009119080001302000DD000030DE00FC
:1002F40072292000911124009616161620009119D7
:10030400080001302000DD000030DE0080292000DC
:10031400911124001614200091199629013020000F
:10032400DD000030DE008D299111080020009111BC
:1003340089302400910020009119A6290130200061
:10034400DD000030DE009D2991110800200091118C
:1003540088302400910020009119B6290130200032
:10036400DD000030DE00AD299111080024001408DE
:100374000439F0007008F10016081F39F000700805
:10038400F2007108720403190800B82923001E152D
:100394001E139E169D171D131D1619309B009C01DC
:1003A40020009112210091160B178B1708002300CF
:1003B4008C018D018E0121000C148C140C158C15EC
:1003C4000C168C160D168D160D178D130E108E101F
:1003D4000E118E110E128E120E138E1322000E1495
:1003E4008E100E110800FD01F91FFF29F809F90903
:1003F400F80A0319F90AFD01FD0A7808F0007908E2
:10040400F100F2018E30FB007B08F3007D08FC0054
:100414007C08F400833145237008F8007108F90062
:100424007208FA000800F601F701720876078400E2
:100434007308773D850012000319080072087607D7
:1004440084007308773D85000008F400F501740802
:10045400F0007508F1008131422182310130F60744
:100464000030F73D172A2000A9002908FD007D0867
:10047400A800A51F4D2A2D30FD00290886008701FC
:100484007D0881000130FD007D08A907A409A509A4
:10049400A40A0319A50A2508F9002408F800270866
:1004A400FB002608FA0029088231E3220800F20042
:1004B400F401F5017508803AF100803071020830CA
:1004C40003197402031808007008860087010108E4
:1004D4007206F1007108F3007008860087010310AA
:1004E400810D0310F20DF31F7E2A3130F1007008E4
:1004F40086008701710881060130F4070030F53D5C
:100504005C2A700871040319AA2AF501F50AF11B83
:10051400952A0130F035F10D890B8C2A0130F40055
:100524007408F507892A71087302031D9B2A700851
:100534007202031CA12A7008F2027108F33B013015
:10054400F136F00C890BA22A0130F502031D952A1D
:100554007308F1007208F0000800F501F601700854
:1005640071040319DE2AF701F70AF11BC32A0130CB
:10057400F035F10D890BBA2A0130F4007408F7073D
:10058400B72A0130F535F60D890BC42A71087302B8
:10059400031DCE2A70087202031CD52A7008F202C9
:1005A4007108F33B75140130F136F00C890BD62A2F
:1005B4000130F702031DC32A7608F1007508F00024
:1005C40008002000A3007908A1007808A0007B0897
:1005D400F1007A08F0002108F3002008F2008231CB
:1005E400AF22823171082000A1007008A000013000
:1005F400FC007C08A30720082104031DE92A230822
:100604008600870181010130A3027B08F1007A088A
:10061400F0007908F3007808F200823183228231F5
:100624007008FC007C082000A2007B08F1007A0816
:10063400F0007908F3007808F2008231AF228231A9
:100644007108F9007008F8000A3020002202031C27
:100654002F2B0730FC007C08A2073030FC007C08FC
:10066400A2072208FC002308860087017C08810079
:100674000130A30278087904031D072B0130FC0024
:100684007C08A3070800730803194D2B7208710432
:100694007004031D5E2B0030F0000030F1000030C8
:1006A400F20008000130F5007508F3070130F23656
:1006B400F10CF00C890B592BFE3072050319772BC2
:1006C400542B0130F5007508F3070130F0070030B2
:1006D40003180130F107003003180130F20701302C
:1006E400F236F10CF00C890B722BFF3072050319F2
:1006F400842B632B0130F3020130F035F10DF20D40
:10070400890B7F2BF11B8A2B0230730203187C2B7D
:100714007318922BFF30F0057F30F105FF30F2059E
:100724000310F30C7308F500F601F7011030F535EA
:10073400F60DF70D890B992B7508F0047608F10472
:100744007708F204740803190800F217080020005F
:10075400C1003708B900BA014108BB00BC013B081D
:10076400BC00BB0139083B07F8003A083C3DF900DE
:100774008131F521833178082000BE007908BF005B
:100784007A08C0000030AA003430AB00C230AC009C
:100794000130F8002F30F9003B30FA003E08FB002E
:1007A4003F08FC004008FD0084319424833178081C
:1007B4002000AD007908AE007A08AF008531FB2532
:1007C400833120002A08C2002B08C3002C08C4006F
:1007D4000030F800C830F9004230FA004208FB004B
:1007E4004308FC004408FD008431942483317808D4
:1007F4002000C2007908C3007A08C4004208F0004F
:100804004308F1004408F20084310E2471082000EA
:10081400B8007008B70008007008F4007108F5000B
:100824007208F6000310750D760DF7007708FD00C9
:100834007D08031D262C0030F3000030F200003048
:10084400F1000030F00008007008F4007108F500B1
:100854007208F6001730F636F50CF40C890B2D2CC3
:100864007408F7007708F800F117FF30F005FF303F
:10087400F1050030F2057008F9007108FA007208F9
:10088400FB00FC018E30FD02FD1F642C7D08803AC4
:100894008F3E0318562C0030F3000030F200003075
:1008A400F1000030F00008000130FC36FB0CFA0CBB
:1008B400F90C890B572C0130F4007408FD07031957
:1008C4007D2C562C18307D02031C7A2C0030F3004A
:1008D4000030F2000030F1000030F0000800013078
:1008E400F935FA0DFB0DFC0D890B722C0130FD025C
:1008F4007D08031D712C780803198B2CF909FA095A
:10090400FB09FC09F90A0319FA0A0319FB0A03197A
:10091400FC0A7C08F3007B08F2007A08F1007908ED
:10092400F000080078082000A0007908A1007A08E7
:10093400A2000310210D220DA3002308A400240803
:10094400031DAB2C0030F8000030F9000030FA0031
:1009540008007B08A0007C08A1007D08A200031009
:10096400210D220DA3002308A9002908031DC12C71
:100974000030F8000030F9000030FA0008002908BF
:100984007B3EA0002008A4077808A0007908A100F5
:100994007A08A2001030A236A10CA00C890BCD2C31
:1009A4002008A3002308A9007B08A0007C08A1005C
:1009B4007D08A2001030A236A10CA00C890BDD2CFE
:1009C4002008A3002308A9068030A0002008A90558
:1009D400F917FC17FF30FB05FF30FC050030FD055F
:1009E4000030A5000030A6000030A7000730A000AA
:1009F4002008A800781C042D7B08A5077C08A63DC8
:100A04007D08A73D0130FA36F90CF80C890B052D49
:100A14000130FB35FC0DFD0D890B0B2D0130A802B7
:100A2400031DFC2C0930A0002008A800781C202DF0
:100A34007B08A5077C08A63D7D08A73D0130FA3652
:100A4400F90CF80C890B212D0130A736A60CA50C46
:100A5400890B272D0130A802031D182D2508F0004D
:100A64002608F1002708F2002408A0002008F3005B
:100A74002908A1002108F400833145237008F800F7
:100A84007108F9007208FA000800FF302000A00085
:100A94002008B3008131892185318131A821853134
:100AA4002400161B572D22008E102C30F00000302D
:100AB400F1008131592185310630F0000030F10018
:100AC40081315921853181316E21853114302000E5
:100AD400A1007930A000A00B6D2DA10B6D2D00326B
:100AE40081314821853181319821853181316221DB
:100AF40085312000A0002008A700813150218531D4
:100B040033302000A0002008F000BE30823159228A
:100B140085318131622185312000A0002008A800A0
:100B240081315021853133302000A0002008F000AD
:100B3400EF308231592285318131622185312000A3
:100B4400A0002008A5002808A000A1012708A200F1
:100B5400A3012208A300A20120082207AB00210858
:100B6400233DAC003308A0002008B200813150219D
:100B740085318131622185312000A0002008A9003F
:100B84008131502185318131622185312000A000DD
:100B94002008AA00813150218531813162218531BB
:100BA4002000A0002008A6002A08A000A10129080E
:100BB400A200A3012208A300A20120082207AD007D
:100BC4002108233DAE0081317B21853181316E21A5
:100BD40085312B3086000030870076308400003069
:100BE400850008302000A00016001A00A00BF62D86
:100BF400080020002A08B0002B08B1002C08B2001D
:100C04000310310D320DB3003308B6002D08B000C7
:100C14002E08B1002F08B2000310310D320DB300BD
:100C24003308B50036080319232E35083602031895
:100C34002A2E3603FF3A3507B00019303002031C60
:100C44002A2E2D08AA002E08AB002F08AC0008009D
:100C5400350803190800360835020318392E350300
:100C6400FF3A3607B0001930300203180800063086
:100C7400B0003008B400AC1BB417AF1B3417AB176B
:100C8400FF30AA05FF30AB050030AC05AE17FF30CE
:100C9400AD05FF30AE050030AF0535083602031848
:100CA400752E0130AD35AE0DAF0D890B542E0130CC
:100CB400B502350836060319702E0130B402340823
:100CC40007390319702E532E0130AC36AB0CAA0C25
:100CD400890B672E0130B0003008B6073608350698
:100CE40003199A2E662E3608350203189A2E0130FF
:100CF400AA35AB0DAC0D890B7A2E0130B60235083E
:100D040036060319962E0130B40234080739031944
:100D1400962E792E0130AF36AE0CAD0C890B8D2E8C
:100D24000130B0003008B50736083506031D8C2E97
:100D3400B41FAC2EFF30AA06FF30AB06FF30AC0662
:100D44000130AA07003003180130AB070030031844
:100D54000130AC07341FBE2EFF30AD06FF30AE06A7
:100D6400FF30AF060130AD07003003180130AE0785
:100D7400003003180130AF07B4012A08AD072B086F
:100D8400AE3D2C08AF3DAF1FD92EFF30AD06FF306E
:100D9400AE06FF30AF060130AD0700300318013056
:100DA400AE07003003180130AF07B401B40A2D08B0
:100DB400F0002E08F1002F08F2003608B0003008C9
:100DC400F3003408B1003108F4008331452370087E
:100DD4002000AA007108AB007208AC0008002100D2
:100DE40019088739683899001908FC3902389900BC
:100DF40095138131D92186318131C821863124006E
:100E04001508F03908389500951609309200093014
:100E1400920041302000C600EE30C500C50B102FF3
:100E2400C60B102F000020006308C500C60145084A
:100E3400F0004608F1008131422186312000640827
:100E4400C500C6014508F0004608F1008131422181
:100E5400863120006108C500C6014508F000460837
:100E6400F10081314221863120006208C500C601AB
:100E74004508F0004608F100813142218631F930FD
:100E84002000C5000000C50B442F0032000085314E
:100E94004725863176308600003087005330840041
:100EA4000030850008302000C50016001A00C50B6C
:100EB400572F0330C7008A30C6005630C500C50B13
:100EC400612FC60B612FC70B612F003222000E1455
:100ED40003302000C7008A30C6005630C500C50B59
:100EE400712FC60B712FC70B712F003222000E1009
:100EF4004A30F2000030F3008231152286310A3084
:100F0400F0000030F1008131422186310D30F000D3
:100F14000030F10081314221863120006208C50091
:100F24004508B70061088331A923863120003808B9
:100F3400C9003708C8000030F2008830F30082315D
:100F44001522863120005A08C500C6014508A400B0
:100F54004608A5000A30A6000030A7004A308231B6
:100F6400352286314A30F2000030F30082311522F6
:100F740086310A30F0000030F1008131422186319F
:100F84000D30F0000030F1008131422186310E3005
:100F9400F2008830F3008231152286312000560891
:100FA400A5005508A4001030A6000030A7004A3060
:100FB4008231352286314A30F2000030F30082312A
:100FC400152286310A30F0000030F10081314221CF
:100FD40086310D30F0000030F1008131422186313C
:100FE4000B2FDB01DC01DD01DE01DF01E001E101AA
:100FF400E201E301E40120008631F12E543465342A
:101004006D347034653472346134743475347234CC
:1010140065343A3420340034483475346D346934DA
:0E10240064346934743479343A34203400343E
:020000040001F9
:04000E00E4FFFFF715
:00000001FF
